:100000000C9452000C9471000C9471000C947F00BD
:100010000C9471000C9471000C9471000C9471009C
:100020000C9471000C9471000C9471000C9471008C
:100030000C9471000C9471000C9471000C9471007C
:100040000C9471000C94CA130C9471000C94710000
:100050000C9471000C9471000C9471000C9471005C
:100060000C9471000C9471000C9471000C944A086B
:100070000C9471000C9471000C9471000C9471003C
:100080000C9471000C9471000C9471000C9471002C
:100090000C9471000C941C160C9459160C9471005D
:1000A0000C94710011241FBECFEFCDBFDFE7DEBF80
:1000B00011E4A0E0B0E4EEE9FCE400E00BBF02C014
:1000C00007900D92A232B107D9F721E4A2E2B1E480
:1000D00001C01D92AC3BB207E1F70E940E030C94E5
:1000E0004D260C940000CF93DF93CDB7DEB70E946E
:1000F000730F0E9424070000DF91CF9108951F9293
:100100000F9200903F000F92112400903B000F923D
:100110002F933F934F935F936F937F938F939F930F
:10012000AF93BF93EF93FF93CF93DF93CDB7DEB73A
:100130000E94860780E491E022E0FC012383000016
:10014000DF91CF91FF91EF91BF91AF919F918F91EF
:100150007F916F915F914F913F912F910F900092FE
:100160003B000F9000923F000F901F901895CF9387
:10017000DF9300D0CDB7DEB789836A838A81882375
:10018000A9F088E090E028E030E0F9012181622FB9
:100190002981422F50E021E030E002C0220F331FBE
:1001A0004A95E2F7262BFC01218315C088E090E0F8
:1001B00028E030E0F9012181622F2981422F50E0AF
:1001C00021E030E002C0220F331F4A95E2F720956C
:1001D0002623FC01218300000F900F90DF91CF9127
:1001E0000895CF93DF931F92CDB7DEB789836981DE
:1001F00083E00E94B70000000F90DF91CF91089537
:10020000CF93DF9300D01F92CDB7DEB719821A8249
:100210000BC089818F5F60E00E944C018B838981D4
:100220009A81019689839A8389819A8109978CF3AF
:1002300060E08CE00E944C018B8380E02396CDBF70
:10024000DEBFDF91CF910895CF93DF931F92CDB79B
:10025000DEB763E089E00E944C01898360E08CE0B6
:100260000E944C01898380E00F90DF91CF91089527
:10027000CF93DF931F92CDB7DEB761E080E00E949D
:100280004C01898361E08DE00E944C01898380E00C
:100290000F90DF91CF910895CF93DF93CDB7DEB765
:1002A0002597CDBFDEBF8C836D8380E197E2898384
:1002B0009A834D816C8180E60E94C614823021F4BD
:1002C0000E946B010E9438018B812596CDBFDEBF55
:1002D000DF91CF910895CF93DF93CDB7DEB76E97BF
:1002E000CDBFDEBF80EE95E020EE35E0F90125813F
:1002F0002D7FFC01258380E099E0FC01138280E0E2
:1003000099E020E039E0F90124812860FC01248390
:1003100080E099E020E039E0F90125812160FC01CD
:10032000258380E099E020E039E0F9012581206C07
:10033000FC0125830E94C31019821A82EFC081E05C
:100340000E94F10080E090E0A0E8BFE38B839C83F3
:10035000AD83BE8320E030E04AE753E46B817C81CB
:100360008D819E810E94B625DC01CB018D8B9E8BF9
:10037000AF8BB88F20E030E040E85FE36D897E8985
:100380008F89988D0E94082588232CF481E090E0C5
:10039000898F9A8F3FC020E03FEF4FE757E46D8988
:1003A0007E898F89988D0E94B12518164CF520E022
:1003B00030E040E251E46B817C818D819E810E941E
:1003C000B625DC01CB01BC01CD010E940D25DC016D
:1003D000CB01898F9A8F0FC089E190E08B8F9C8F22
:1003E0008B8D9C8D0197F1F78B8F9C8F898D9A8DCA
:1003F0000197898F9A8F898D9A8D892B69F714C0FF
:100400006D897E898F89988D0E940D25DC01CB0135
:10041000898F9A8F898D9A8D8D8F9E8F8D8D9E8DD0
:100420000197F1F78D8F9E8F80E00E94F10080E0B0
:1004300090E0A0E8BFE38F839887A987BA8720E080
:1004400030E04AE753E46F81788589859A850E9478
:10045000B625DC01CB018B879C87AD87BE8720E06A
:1004600030E040E85FE36B857C858D859E850E944A
:10047000082588232CF481E090E08F87988B3FC07B
:1004800020E03FEF4FE757E46B857C858D859E85A7
:100490000E94B12518164CF520E030E040E251E40E
:1004A0006F81788589859A850E94B625DC01CB010C
:1004B000BC01CD010E940D25DC01CB018F87988BFB
:1004C0000FC089E190E0898B9A8B89899A8901977D
:1004D000F1F7898B9A8B8F85988901978F87988BF5
:1004E0008F859889892B69F714C06B857C858D85EC
:1004F0009E850E940D25DC01CB018F87988B8F850F
:1005000098898B8B9C8B8B899C890197F1F78B8BBE
:100510009C8B89819A81019689839A8389819A81AA
:100520000A970CF40CCF80EE95E020EE35E0F9014F
:1005300025812260FC01258380E099E021ECFC010B
:10054000238380E099E020E039E0F90124812860EC
:10055000FC01248380E099E020E039E0F901258165
:100560002160FC01258380E099E020E039E0F90179
:100570002581206CFC0125830E949E1000006E9650
:10058000CDBFDEBFDF91CF910895CF93DF9300D031
:10059000CDB7DEB789836A838A818823A9F08CE08E
:1005A00090E02CE030E0F9012181622F2981422F77
:1005B00050E021E030E002C0220F331F4A95E2F7FD
:1005C000262BFC01218315C08CE090E02CE030E06C
:1005D000F9012181622F2981422F50E021E030E092
:1005E00002C0220F331F4A95E2F720952623FC0113
:1005F000218300000F900F90DF91CF910895CF934A
:10060000DF931F92CDB7DEB78983698180E00E94B6
:10061000C50200000F90DF91CF910895CF93DF9333
:10062000CDB7DEB76497CDBFDEBF88E090E08983A9
:100630009A831B821C821D821E820E94730080E0AE
:100640000E94FF0280E090E0AAE7B4E48F839887DD
:10065000A987BA8720E030E84BEB55E46F817885B5
:1006600089859A850E94B625DC01CB018B879C8702
:10067000AD87BE8720E030E040E85FE36B857C8596
:100680008D859E850E94082588232CF481E090E0CA
:100690008F87988B3FC020E03FEF4FE757E46B8593
:1006A0007C858D859E850E94B12518164CF520E02D
:1006B00030E040E251E46F81788589859A850E9417
:1006C000B625DC01CB01BC01CD010E940D25DC016A
:1006D000CB018F87988B0FC088E592E0898B9A8B2E
:1006E00089899A890197F1F7898B9A8B8F859889E7
:1006F00001978F87988B8F859889892B69F714C00C
:100700006B857C858D859E850E940D25DC01CB0146
:100710008F87988B8F8598898B8B9C8B8B899C89F5
:100720000197F1F78B8B9C8B0E9438010E9400018E
:100730000E9424010E94350780912841813031F4C4
:10074000109228410E94540489839A8328E030E063
:1007500089819A81A901481B590B28EE33E0429FF9
:10076000C001439F900D529F900D11248D839E8355
:100770008D819E81892B91F08D819E819C012053DA
:10078000384F8B819C818217930720F481E00E946F
:10079000FF0207C080E00E94FF0203C080E00E94C9
:1007A000FF028B819C81813197421CF01B821C824D
:1007B000C1CF8B819C8101968B839C83BBCFCF93D0
:1007C000DF9300D01F92CDB7DEB78A839B83198257
:1007D0008A819B814C9710F419825FC08A819B812A
:1007E0004C9738F08A819B81C89718F481E08983FF
:1007F00054C08A819B81C89740F08A819B8184354F
:10080000910518F482E0898348C08A819B818435F0
:10081000910540F08A819B818037910518F483E02F
:1008200089833BC08A819B818037910540F08A8112
:100830009B818C38910518F484E089832EC08A81CD
:100840009B818C38910540F08A819B81883A910583
:1008500018F485E0898321C08A819B81883A9105BB
:1008600040F08A819B81843C910518F486E089835D
:1008700014C08A819B81843C910540F08A819B81D0
:10088000803E910518F487E0898307C08A819B81A7
:10089000803E910510F088E0898389812396CDBF41
:1008A000DEBFDF91CF910895CF93DF9300D01F92E9
:1008B000CDB7DEB780E090E00E940B088093224124
:1008C000809122418823D1F180E090E00E942A08A3
:1008D000809323419093244180912341909124411E
:1008E0000E94DF03982F88E0891B809300401982C3
:1008F0001A821BC080910040282F30E089819A81A4
:10090000821793073CF089818F5F63E00E944C015E
:100910008B8306C089818F5F60E00E944C018B83CE
:1009200089819A81019689839A8389819A8109971D
:100930000CF360E08CE00E944C018B8380910040BE
:10094000882F90E02396CDBFDEBFDF91CF91089531
:10095000CF93DF93CDB7DEB70000DF91CF9108953D
:10096000CF93DF931F92CDB7DEB7898300000E943B
:100970006815982F81E089278823C9F789810E940B
:10098000901500000E947C158823E1F700000F906D
:10099000DF91CF910895CF93DF93CDB7DEB72A973C
:1009A000CDBFDEBF809125418F708B838B818823E3
:1009B000A1F419821A820DC089819A818F5F9F4BA1
:1009C000FC0180810E94B00489819A81019689830B
:1009D0009A8389819A81439778F385E50E94B004D0
:1009E000809125410E94B00419861A866CC08985C1
:1009F0009A850E94A0078C839D838C810E94B004FD
:100A00008C819D81892F99270E94B00489859A85C0
:100A10000E94BA078C839D838C810E94B0048C81D4
:100A20009D81892F99270E94B00489859A850E940B
:100A3000A0078E839F8389859A850E94BA079C01AF
:100A40008E819F81821B930B8E839F838E819F81DA
:100A50008C839D838C810E94B0048C819D81892F21
:100A600099270E94B00489859A850E94D4078C83B7
:100A70009D838C810E94B0048C819D81892F992750
:100A80000E94B00489859A850E94EE078887888530
:100A9000882324F481E00E94B00403C080E00E9417
:100AA000B00429853A85C901880F991F820F931FC9
:100AB00087589F4BFC0180810E94B00489859A85EC
:100AC000019689879A8789859A85049708F48FCF3C
:100AD00019861A8681C040919C4050919D4029857D
:100AE0003A85C901880F991F880F991F880F991F90
:100AF000820F931F840F951FFC0180818887888552
:100B0000882F90E081709927892B21F081E00E9445
:100B1000B00403C080E00E94B00440919C4050911A
:100B20009D4029853A85C901880F991F880F991F13
:100B3000880F991F820F931F840F951FFC018781D7
:100B400090858C839D838C810E94B0048C819D81D3
:100B5000892F99270E94B00420919E4030919F4098
:100B600089859A85880F991F880F991F880F991F6B
:100B7000820F931FFC01868197818C839D838C81DA
:100B80000E94B0048C819D81892F99270E94B00416
:100B900040919C4050919D4029853A85C901880F1C
:100BA000991F880F991F880F991F820F931F840F19
:100BB000951FFC01858196818C839D838C810E9489
:100BC000B0048C819D81892F99270E94B00489856A
:100BD0009A85019689879A8780919A4090919B4047
:100BE000FC018281282F30E089859A85821793073E
:100BF00008F471CF809129410E94B0048091254171
:100C000091E0980F909325410E94B0048AEA0E94D7
:100C1000B00400002A96CDBFDEBFDF91CF910895CA
:100C2000CF93DF9300D000D0CDB7DEB78B836C833A
:100C30008B81882F90E0805F9B4F89839A838C8182
:100C4000813059F489819A81FC018081282F2860A4
:100C500089819A81FC0120830DC08C81882351F405
:100C600089819A81FC018081282F277F89819A813F
:100C7000FC01208300002496CDBFDEBFDF91CF9121
:100C80000895CF93DF9300D000D0CDB7DEB78B832C
:100C90006C838B81882F90E0805F9B4F89839A8340
:100CA00089819A81FC018081982F987F8C81892B82
:100CB000282F89819A81FC01208300002496CDBFD2
:100CC000DEBFDF91CF910895CF93DF93CDB7DEB72D
:100CD00060E081E00E94100664E081E00E9441062D
:100CE00060E083E00E94100664E083E00E94410619
:100CF00060E085E00E94100664E085E00E94410605
:100D000060E087E00E94100664E087E00E944106F0
:100D100060E080E00E94100664E080E00E944106EE
:100D20000000DF91CF910895CF93DF9300D01F9201
:100D3000CDB7DEB71B8289E690E40E94DA2282E911
:100D400091E40E94912319821A8213C089819A81A9
:100D5000BC0189E690E40E940B2489819A81BC0140
:100D600089E690E40E942A2489819A8101968983E8
:100D70009A8389819A81049748F319821A8217C04D
:100D800029813A81C901880F991F880F991F820F05
:100D9000931F8B589E4B2981AC01622F85E890E40C
:100DA0000E947A1789819A81019689839A83898121
:100DB0009A81049728F388E990E40E94671B982F92
:100DC0008B81892B8B838B812396CDBFDEBFDF91F7
:100DD000CF910895CF93DF93CDB7DEB781E08093B5
:100DE00027410000DF91CF910895CF93DF931F92A9
:100DF000CDB7DEB7898389818F5F809329410E94B7
:100E0000CB0400000F90DF91CF910895CF93DF9333
:100E10001F92CDB7DEB78983000080E491E0FC012A
:100E20008181882F90E084709927892BB1F780E425
:100E300091E02981222F30E0FC01228733870000D6
:100E40000F90DF91CF910895CF93DF93CDB7DEB7A9
:100E500080E20E9406070E9464060E9494060E9497
:100E6000A8040000DF91CF910895CF93DF931F92E4
:100E7000CDB7DEB780912641813061F46AEE76E02D
:100E800089E690E40E949B2389838981882311F459
:100E90001092264180912741813099F51092274187
:100EA0000E945820898389818823B9F485E890E4D9
:100EB0000E94991789838981882319F081E00E9413
:100EC000F50688E990E40E94A71B8983898188231D
:100ED00039F082E00E94F50603C080E00E94F5062A
:100EE0008091854090918640FC018081882324F484
:100EF00081E08093264103C081E0809328410E94D5
:100F0000CB0400000F90DF91CF910895CF93DF9332
:100F1000CDB7DEB7809174418F5F8093744180912B
:100F20007441843148F01092744181E080932641ED
:100F300084E190E00E946F170000DF91CF91089547
:100F4000CF93DF9300D0CDB7DEB789839A83298111
:100F50003A81C901880F991F880F991F820F931F2B
:100F60008A589E4BFC01808191810F900F90DF91F8
:100F7000CF910895CF93DF9300D0CDB7DEB78983AB
:100F80009A8329813A81C901880F991F820F931F83
:100F9000880F991F82569E4BFC01808191810F9092
:100FA0000F90DF91CF910895CF93DF9300D0CDB70D
:100FB000DEB789839A8329813A81C901880F991FF5
:100FC000880F991F820F931F88589E4BFC018081C8
:100FD00091810F900F90DF91CF910895CF93DF9380
:100FE00000D0CDB7DEB789839A8340918940509174
:100FF0008A4029813A81C901880F991F820F931F66
:10100000880F991F840F951FFC0180810F900F900E
:10101000DF91CF910895CF93DF9300D0CDB7DEB7A6
:1010200089839A8340919C4050919D4029813A81C7
:10103000C901880F991F880F991F880F991F820F68
:10104000931F840F951FFC0180810F900F90DF91FB
:10105000CF910895CF93DF9300D0CDB7DEB78983CA
:101060009A8340919C4050919D4029813A81C901C9
:10107000880F991F880F991F880F991F820F931F40
:10108000840F951FFC01858196810F900F90DF9151
:10109000CF9108951F920F9200903F000F9211245C
:1010A00000903B000F922F933F934F935F936F936A
:1010B0007F938F939F93AF93BF93EF93FF93CF93C0
:1010C000DF93CDB7DEB70E94B1240000DF91CF914E
:1010D000FF91EF91BF91AF919F918F917F916F9110
:1010E0005F914F913F912F910F9000923B000F9095
:1010F00000923F000F901F901895CF93DF93CDB7CC
:10110000DEB780E096E021E0FC01208380E0DF9103
:10111000CF910895CF93DF93CDB7DEB780E890E00D
:10112000FC01118680E0DF91CF910895CF93DF938A
:1011300000D01F92CDB7DEB789839A836B838981F4
:101140009A814B8168ED0E942A1500002396CDBF3D
:10115000DEBFDF91CF910895CF93DF93CDB7DEB798
:1011600064E288E690E00E94960880E0DF91CF91EB
:101170000895CF93DF93CDB7DEB7789480E0DF9109
:10118000CF910895CF93DF9300D000D0CDB7DEB7D5
:101190008B836C838B81882F90E0805F9B4F89834A
:1011A0009A838C81813059F489819A81FC018081F4
:1011B000282F286089819A81FC0120830DC08C81B1
:1011C000882351F489819A81FC018081282F277F0F
:1011D00089819A81FC01208300002496CDBFDEBF67
:1011E000DF91CF910895CF93DF9300D0CDB7DEB7D5
:1011F00089836A838A81882F90E081309105E1F0AC
:101200008230910571F1892B09F03BC020E030E07C
:1012100080E090E0FC018081682F8981482F50E0B8
:1012200081E090E002C0880F991F4A95E2F780950F
:101230008623F901808325C020E030E080E090E043
:10124000FC018081682F8981482F50E081E090E087
:1012500002C0880F991F4A95E2F7862BF901808317
:1012600010C08981882F90E0805F9B4F2981222FB9
:1012700030E0205F3B4FF90120812860FC01208392
:10128000000000000F900F90DF91CF910895CF9351
:10129000DF9300D0CDB7DEB789836A838A81882344
:1012A000A9F020E030E080E090E0FC018181682F2F
:1012B0008981482F50E081E090E002C0880F991F9B
:1012C0004A95E2F7862BF901818315C020E030E0D2
:1012D00080E090E0FC018181682F8981482F50E0F7
:1012E00081E090E002C0880F991F4A95E2F780954F
:1012F0008623F901818300000F900F90DF91CF9139
:101300000895CF93DF9300D000D0CDB7DEB78B83A5
:101310006C838B81882F90E0805B9B4F89839A83BD
:101320008C81813059F489819A81FC018081282F38
:10133000286089819A81FC0120830DC08C818823DB
:1013400051F489819A81FC018081282F277F89812E
:101350009A81FC01208300002496CDBFDEBFDF917F
:10136000CF910895CF93DF9300D000D0CDB7DEB7F3
:101370008B836C838B81882F90E0805B9B4F89836C
:101380009A838C81882359F089819A81FC0180811C
:10139000282F206889819A81FC0120830AC08981D5
:1013A0009A81FC018081282F2F7789819A81FC0105
:1013B000208300002496CDBFDEBFDF91CF9108953A
:1013C000CF93DF9300D000D0CDB7DEB78B836C8393
:1013D0008B81882F90E0805B9B4F89839A838981E2
:1013E0009A81FC018081982F987F8C81892B282FEE
:1013F00089819A81FC01208300002496CDBFDEBF45
:10140000DF91CF910895CF93DF9300D0CDB7DEB7B2
:1014100089836A838A81882F90E081309105E1F089
:101420008230910571F1892B09F03BC088E090E092
:1014300028E030E0F9012081622F2981422F50E01D
:1014400021E030E002C0220F331F4A95E2F72095D9
:101450002623FC01208325C088E090E028E030E0CE
:10146000F9012081622F2981422F50E021E030E0F4
:1014700002C0220F331F4A95E2F7262BFC0120837E
:1014800010C08981882F90E0805B9B4F2981222F9B
:1014900030E0205B3B4FF90120812860FC01208374
:1014A000000000000F900F90DF91CF910895CF932F
:1014B000DF9300D0CDB7DEB789836A838A81882322
:1014C000A9F088E090E028E030E0F9012181622F66
:1014D0002981422F50E021E030E002C0220F331F6B
:1014E0004A95E2F7262BFC01218315C088E090E0A5
:1014F00028E030E0F9012181622F2981422F50E05C
:1015000021E030E002C0220F331F4A95E2F7209518
:101510002623FC01218300000F900F90DF91CF91D3
:101520000895CF93DF9300D000D0CDB7DEB78B8383
:101530006C838B81882F90E080599B4F89839A839D
:101540008C81813059F489819A81FC018081282F16
:10155000286089819A81FC0120830DC08C818823B9
:1015600051F489819A81FC018081282F277F89810C
:101570009A81FC01208300002496CDBFDEBFDF915D
:10158000CF910895CF93DF9300D000D0CDB7DEB7D1
:101590008B836C838B81882F90E080599B4F89834C
:1015A0009A8389819A81FC018081982F987F8C8110
:1015B000892B282F89819A81FC01208300002496A1
:1015C000CDBFDEBFDF91CF910895CF93DF9300D0E1
:1015D000CDB7DEB789836A838A81882F90E0813016
:1015E0009105E1F08230910571F1892B09F03BC042
:1015F0008CE090E02CE030E0F9012081622F29811D
:10160000422F50E021E030E002C0220F331F4A9504
:10161000E2F720952623FC01208325C08CE090E092
:101620002CE030E0F9012081622F2981422F50E027
:1016300021E030E002C0220F331F4A95E2F7262B4B
:10164000FC01208310C08981882F90E080599B4F36
:101650002981222F30E020593B4FF9012081286059
:10166000FC012083000000000F900F90DF91CF91CC
:101670000895CF93DF9300D0CDB7DEB789836A8317
:101680008A818823A9F08CE090E02CE030E0F90119
:101690002181622F2981422F50E021E030E002C0F9
:1016A000220F331F4A95E2F7262BFC01218315C038
:1016B0008CE090E02CE030E0F9012181622F29815B
:1016C000422F50E021E030E002C0220F331F4A9544
:1016D000E2F720952623FC01218300000F900F9054
:1016E000DF91CF910895CF93DF9300D000D0CDB795
:1016F000DEB78B836C838B81882F90E080559B4F66
:1017000089839A838C81813059F489819A81FC0183
:101710008081282F286089819A81FC0120830DC057
:101720008C81882351F489819A81FC018081282F42
:10173000277F89819A81FC01208300002496CDBFF8
:10174000DEBFDF91CF910895CF93DF9300D0CDB767
:10175000DEB789836A838A81882F90E08130910582
:10176000E1F08230910571F1892B09F03BC084E1F1
:1017700090E024E130E0F9012081622F2981422F9D
:1017800050E021E030E002C0220F331F4A95E2F71B
:1017900020952623FC01208325C084E190E024E1EC
:1017A00030E0F9012081622F2981422F50E021E0B1
:1017B00030E002C0220F331F4A95E2F7262BFC01CE
:1017C000208310C08981882F90E080559B4F29810C
:1017D000222F30E020553B4FF90120812860FC0189
:1017E0002083000000000F900F90DF91CF910895AB
:1017F000CF93DF9300D0CDB7DEB789836A838A8128
:101800008823A9F084E190E024E130E0F90121810E
:10181000622F2981422F50E021E030E002C0220FE8
:10182000331F4A95E2F7262BFC01218315C084E182
:1018300090E024E130E0F9012181622F2981422FDB
:1018400050E021E030E002C0220F331F4A95E2F75A
:1018500020952623FC01218300000F900F90DF913B
:10186000CF910895CF93DF931F92CDB7DEB78983D1
:10187000698182E00E94C20800000F90DF91CF9141
:101880000895CF93DF931F92CDB7DEB78983698127
:1018900082E00E94F30800000F90DF91CF9108953D
:1018A000CF93DF931F92CDB7DEB78983698184E040
:1018B0000E94F30800000F90DF91CF910895CF931D
:1018C000DF931F92CDB7DEB78983698184E00E94E0
:1018D000470900000F90DF91CF910895CF93DF93D8
:1018E0001F92CDB7DEB78983698186E00E94F30835
:1018F00000000F90DF91CF910895CF93DF931F9257
:10190000CDB7DEB78983698186E00E944709000070
:101910000F90DF91CF910895CF93DF931F92CDB7B2
:10192000DEB78983698180E00E94030A00000F907E
:10193000DF91CF910895CF93DF931F92CDB7DEB79C
:101940008983698180E00E94570A00000F90DF912F
:10195000CF910895CF93DF931F92CDB7DEB78983E0
:10196000698181E00E94810900000F90DF91CF9191
:101970000895CF93DF931F92CDB7DEB78983698136
:1019800081E00E94030A00000F90DF91CF9108953B
:10199000CF93DF931F92CDB7DEB78983698182E051
:1019A0000E94810900000F90DF91CF910895CF939D
:1019B000DF931F92CDB7DEB78983698182E00E94F1
:1019C000030A00000F90DF91CF910895CF93DF932A
:1019D0001F92CDB7DEB78983698182E00E94E0095A
:1019E00000000F90DF91CF910895CF93DF931F9266
:1019F000CDB7DEB78983698182E00E94B209000019
:101A00000F90DF91CF910895CF93DF931F92CDB7C1
:101A1000DEB78983698182E00E94570A00000F9037
:101A2000DF91CF910895CF93DF931F92CDB7DEB7AB
:101A30008983698183E00E94810900000F90DF9112
:101A4000CF910895CF93DF931F92CDB7DEB78983EF
:101A5000698183E00E94030A00000F90DF91CF911B
:101A60000895CF93DF931F92CDB7DEB78983698145
:101A700083E00E94E00900000F90DF91CF9108956C
:101A8000CF93DF931F92CDB7DEB78983698183E05F
:101A90000E94B20900000F90DF91CF910895CF937B
:101AA000DF931F92CDB7DEB78983698183E00E94FF
:101AB000570A00000F90DF91CF910895CF93DF93E5
:101AC0001F92CDB7DEB78983698180E00E94E50A65
:101AD00000000F90DF91CF910895CF93DF931F9275
:101AE000CDB7DEB78983698180E00E94390B0000A1
:101AF0000F90DF91CF910895CF93DF931F92CDB7D1
:101B0000DEB78983698181E00E94910A00000F900D
:101B1000DF91CF910895CF93DF931F92CDB7DEB7BA
:101B20008983698181E00E94C20A00000F90DF91E1
:101B3000CF910895CF93DF931F92CDB7DEB78983FE
:101B4000698182E00E94910A00000F90DF91CF919D
:101B50000895CF93DF931F92CDB7DEB78983698154
:101B600082E00E94C20A00000F90DF91CF91089599
:101B7000CF93DF931F92CDB7DEB78983698183E06E
:101B80000E94910A00000F90DF91CF910895CF93AA
:101B9000DF931F92CDB7DEB78983698183E00E940E
:101BA000C20A00000F90DF91CF910895CF93DF9389
:101BB0001F92CDB7DEB78983698184E00E94E50A70
:101BC00000000F90DF91CF910895CF93DF931F9284
:101BD000CDB7DEB78983698184E00E94390B0000AC
:101BE0000F90DF91CF910895CF93DF931F92CDB7E0
:101BF000DEB78983698185E00E94910A00000F9019
:101C0000DF91CF910895CF93DF931F92CDB7DEB7C9
:101C10008983698185E00E94E50A00000F90DF91C9
:101C2000CF910895CF93DF931F92CDB7DEB789830D
:101C3000698186E00E94E50A00000F90DF91CF9154
:101C40000895CF93DF931F92CDB7DEB78983698163
:101C500086E00E94390B00000F90DF91CF9108952C
:101C6000CF93DF931F92CDB7DEB78983698187E079
:101C70000E94E50A00000F90DF91CF910895CF9365
:101C8000DF931F92CDB7DEB78983698187E00E9419
:101C9000390B00000F90DF91CF910895CF93DF9320
:101CA0001F92CDB7DEB78983698180E00E94A40BC3
:101CB00000000F90DF91CF910895CF93DF931F9293
:101CC000CDB7DEB78983698180E00E94F80B000000
:101CD0000F90DF91CF910895CF93DF931F92CDB7EF
:101CE000DEB78983698181E00E94730B00000F9049
:101CF000DF91CF910895CF93DF931F92CDB7DEB7D9
:101D00008983698181E00E94A40B00000F90DF911C
:101D1000CF910895CF93DF9300D000D0CDB7DEB739
:101D2000198212C08981882F90E0805F9B4F2981A2
:101D3000222F30E0205F3B4FF90120812860FC0119
:101D4000208389818F5F89838981883058F31A8243
:101D500012C08A81882F90E0805B9B4F2A81222FBE
:101D600030E0205B3B4FF90120812860FC0120839B
:101D70008A818F5F8A838A81883058F31B8212C0E0
:101D80008B81882F90E080599B4F2B81222F30E050
:101D900020593B4FF90120812860FC0120838B8171
:101DA0008F5F8B838B81883058F31C8212C08C81AB
:101DB000882F90E080559B4F2C81222F30E02055BA
:101DC0003B4FF90120812860FC0120838C818F5FCB
:101DD0008C838C81883058F300002496CDBFDEBF01
:101DE000DF91CF910895CF93DF93CDB7DEB780E039
:101DF0000E94B90C80E00E94AA0C80E00E949B0C1B
:101E000081E00E948C0C0E9454150000DF91CF915C
:101E10000895CF93DF93CDB7DEB780E00E947B0EAD
:101E200080E00E946C0E80E00E945D0E81E00E94C6
:101E30004E0E0E94CA160000DF91CF910895CF93F5
:101E4000DF93CDB7DEB784E00E948B0D80E00E9467
:101E50007C0D0E94FE160000DF91CF910895CF9374
:101E6000DF93CDB7DEB780E00E944F0D81E00E9486
:101E7000220D80E00E94130D80E00E94400D80E062
:101E80000E94310D80EE95E020EE35E0F9012581CC
:101E90002260FC01258380E00E94040D81E00E9405
:101EA000D70C80E00E94C80C80E00E94F50C80E016
:101EB0000E94E60C80EE95E020EE35E0F9012581E8
:101EC0002260FC0125830E9401100000DF91CF9168
:101ED0000895CF93DF93CDB7DEB70E947D08000051
:101EE000DF91CF910895CF93DF93CDB7DEB70E94F6
:101EF0008A0E80E00E94410C80E00E94320C80E05B
:101F00000E945F0C81E00E94500C80E00E947D0CDA
:101F100081E00E946E0C80E00E946D0D81E00E94C5
:101F20005E0D84E00E94A90D80E00E949A0D84E07D
:101F30000E94C70D80E00E94B80D80E00E94E50D70
:101F400081E00E94D60D80E00E94030E80E00E9496
:101F5000F40D80E00E94210E81E00E94120E80E0CC
:101F60000E943F0E81E00E94300E0E94AC080E9449
:101F7000F30E0E94090F0E944C150E94B9080E949E
:101F80001F0F0E942F0F0E94690F0E942F150E94A1
:101F90008A080000DF91CF910895CF93DF9300D09E
:101FA00000D0CDB7DEB789839A836B837C832B8186
:101FB0003C8189819A81A901BC0180E00E9463145F
:101FC00000002496CDBFDEBFDF91CF910895CF935F
:101FD000DF9300D000D0CDB7DEB789839A836B83BF
:101FE0007C832B813C8189819A81A901BC0182E09B
:101FF0000E94631400002496CDBFDEBFDF91CF9115
:102000000895CF93DF93CDB7DEB780E099E029E163
:10201000FC01268380E099E021ECFC012383000091
:10202000DF91CF910895CF93DF9300D0CDB7DEB786
:102030008A8381E0898380912B418270882309F013
:1020400077C08A8180932C4180912B418E7F809331
:102050002B4180912B41826080932B4180912B41B9
:10206000877F80932B418EE08093354184EF91E010
:10207000809333419093344180912B4184608093CD
:102080002B4189E494E18093374190933841109239
:1020900043411092444189E494E180933941909303
:1020A0003A41109245411092464189E494E180936F
:1020B0003B4190933C41109247411092484189E442
:1020C00094E180933D4190933E411092494110929A
:1020D0004A4186E594E180933F41909340411092BC
:1020E0004B4110924C4180E099E020E039E0F90149
:1020F00024812860FC01248380E099E020E039E01D
:10210000F90125812160FC01258380E099E020E030
:1021100039E0F9012581206CFC01258380E099E0FC
:1021200020E039E0F9012381206CFC01238319822E
:1021300089810F900F90DF91CF910895CF93DF9316
:10214000CDB7DEB780912B418E7F80932B4180915C
:102150002B418D7F80932B4180912B41877F8093F2
:102160002B418EE08093354184EF91E080933341A1
:102170009093344180912B41846080932B410000E7
:10218000DF91CF910895CF93DF931F92CDB7DEB744
:1021900081E0898380E099E0FC018581882F90E0CF
:1021A00084709927892B41F080912B418E7F8093F9
:1021B0002B4182E08093364180912B4181708823AE
:1021C000E9F480912B418D7F80932B418FEF809399
:1021D0002C4180E099E020E039E0F9012581206C74
:1021E000FC01258380E099E020E039E0F9012381BA
:1021F0002F73FC01238380913641898389810F905D
:10220000DF91CF910895CF93DF9300D000D0CDB769
:10221000DEB789839A836B837C8380912B418470A2
:10222000882389F089819A8180932D4190932E4152
:102230008B819C8180932F419093304180912B41E1
:102240008B7F80932B4100002496CDBFDEBFDF91B2
:10225000CF910895CF93DF9300D0CDB7DEB78A83B7
:1022600081E0898380912B418170882391F4809152
:102270002B41816080932B4119828A81882321F030
:1022800081E08093354103C082E0809335410E9414
:10229000FD1389810F900F90DF91CF910895CF9317
:1022A000DF93CDB7DEB780E00E942A11DF91CF9196
:1022B0000895CF93DF93CDB7DEB780E099E020E0BB
:1022C00039E0F90124812860FC01248380E099E051
:1022D00020E039E0F90125812160FC01258380910E
:1022E0002B418E7F80932B41109236418EE0DF91FF
:1022F000CF910895CF93DF93CDB7DEB780912B4177
:102300008E7F80932B411092364180E0DF91CF91F8
:102310000895CF93DF93CDB7DEB70E94DF11DF9131
:10232000CF910895CF93DF93CDB7DEB70E94F71119
:10233000DF91CF910895CF93DF93CDB7DEB70E94A1
:10234000DF11DF91CF910895CF93DF93CDB7DEB743
:1023500080E099E020E039E0F90124812360FC016C
:1023600024830E947A11DF91CF910895CF93DF9358
:10237000CDB7DEB780912B41877F80932B4182E0E0
:102380008093364120913B4130913C4180914741BF
:1023900090914841F9010995882F90E0823091058C
:1023A00019F0039721F006C00E94891105C00E9410
:1023B000921102C00E94A411DF91CF910895CF9392
:1023C000DF93CDB7DEB780912B41886080932B419E
:1023D00080E099E020912C41222F30E0220F331F22
:1023E0002160FC01278384E0DF91CF910895CF9392
:1023F000DF93CDB7DEB780912B41886080932B416E
:1024000080E099E020912C41220FFC01278383E09A
:10241000DF91CF910895CF93DF93CDB7DEB780E002
:1024200099E020E039E0F90124812B7FFC0124832D
:1024300084E0DF91CF910895CF93DF93CDB7DEB7DE
:1024400080E099E020E039E0F90124812B7FFC0154
:10245000248383E0DF91CF910895CF93DF93CDB7AD
:10246000DEB780E099E020E039E0F90124812460C2
:10247000FC01248380E099E020E039E0F901248127
:102480002360FC0124830E947A11DF91CF9108958B
:10249000CF93DF93CDB7DEB780E099E020E039E05D
:1024A000F90124812460FC01248388E0DF91CF912D
:1024B0000895CF93DF93CDB7DEB780E099E0FC01BC
:1024C0008581882F90E080719927892BD9F0209100
:1024D0003D4130913E418091494190914A41F901FD
:1024E0000995882F90E08230910519F0039721F02B
:1024F00006C00E9489112EC00E9492112BC00E941A
:10250000A41128C080912B41877F80932B4120E02C
:1025100039E080912D4190912E41AC014F5F5F4F8A
:1025200040932D4150932E41FC018081F901808719
:1025300080912F4190913041019780932F4190934A
:10254000304180912F4190913041892B11F083E0EF
:1025500001C085E0DF91CF910895CF93DF93CDB790
:10256000DEB780912B41877F80932B4180912F4153
:1025700090913041019751F480E099E020E039E0FA
:10258000F90124812460FC01248309C080E099E0E2
:1025900020E039E0F90124812B7FFC012483809124
:1025A0002F4190913041019780932F41909330417A
:1025B00080912F4190913041892BF1F080912D41F4
:1025C00090912E4120E039E0F9012085FC01208323
:1025D00080912D4190912E41019680932D419093B1
:1025E0002E4180E099E020E039E0F9012481226069
:1025F000FC01248384E02CC080912D4190912E41D8
:1026000020E039E0F9012085FC01208380912D41F3
:1026100090912E41019680932D4190932E4180916F
:102620002B41846080932B41209137413091384178
:102630008091434190914441F9010995882F90E0A0
:102640000297029718F40E94481202C00E942D12AD
:10265000DF91CF910895CF93DF93CDB7DEB780E0C0
:1026600099E0FC018581882F90E080719927892B62
:10267000D9F020913D4130913E4180914941909166
:102680004A41F9010995882F90E08230910519F0AF
:10269000039721F006C00E9489112AC00E9492115E
:1026A00027C00E94A41124C080912B418460809394
:1026B0002B41209137413091384180914341909195
:1026C0004441F9010995882F90E08330910541F04C
:1026D0008430910541F0029749F40E94891108C0A5
:1026E0000E94921105C00E94591202C00E94A411BA
:1026F000DF91CF910895CF93DF93CDB7DEB780E020
:1027000099E020E039E0F90125812860FC0125836A
:1027100082E0809336412091394130913A41809155
:10272000454190914641F9010995882F90E082300A
:10273000910519F0039721F006C00E94891105C088
:102740000E94921102C00E945911DF91CF91089509
:10275000CF93DF93CDB7DEB780E099E020E039E09A
:10276000F90124812860FC01248380E099E020E0C5
:1027700039E0F90125812160FC01258380912B41FD
:102780008E7F80932B4182E0809336418EE0DF91F3
:10279000CF9108951F920F9200903F000F92112445
:1027A00000903B000F922F933F934F935F936F9353
:1027B0007F938F939F93AF93BF93EF93FF93CF93A9
:1027C000DF93CDB7DEB70E94FD130000DF91CF91FC
:1027D000FF91EF91BF91AF919F918F917F916F91F9
:1027E0005F914F913F912F910F9000923B000F907E
:1027F00000923F000F901F901895CF93DF93CDB7B5
:10280000DEB780E099E020E039E0F9012581206C15
:10281000FC01258380912B418870882369F080E03A
:1028200099E0FC018581882F90E080719927892BA0
:1028300019F08FE08093354180E099E0FC018581BB
:10284000882F90E088709927892B19F080E1809378
:10285000354180E099E0FC018581882F90E084700B
:102860009927892B19F081E1809335418091354179
:10287000882F90E0880F991F80569F4BFC01808124
:102880009181FC010995809335410000DF91CF9142
:102890000895CF93DF9300D0CDB7DEB789839A83B5
:1028A00081E00F900F90DF91CF910895CF93DF9348
:1028B00000D0CDB7DEB789839A8385E00F900F9063
:1028C000DF91CF910895CF93DF93CDB7DEB72597F2
:1028D000CDBFDEBF89836A837B834C835D838A811E
:1028E0009B81892BD9F08981882F90E00696880FEB
:1028F000991F855D9E4B2A813B81FC01208331839A
:102900008981882F90E00C96880F991F855D9E4BDA
:102910002C813D81FC012083318318C08981882F5F
:1029200090E00696880F991F855D9E4B29E434E15F
:10293000FC01208331838981882F90E00C96880FD9
:10294000991F855D9E4BFC01108211820000259627
:10295000CDBFDEBFDF91CF910895CF93DF9300D03D
:10296000CDB7DEB789839A8389819A8161E070E06F
:102970000E94031160E070E080E090E00E94CD0FC3
:1029800084E00F900F90DF91CF910895CF93DF9364
:10299000CDB7DEB72597CDBFDEBF8B836C834D836C
:1029A00080E197E289839A8300008B810E94131053
:1029B000813049F489819A81019789839A83898139
:1029C0009A81892B91F789819A81892B11F481E071
:1029D0002EC0CE010596BC018DEA94E10E94CD0F78
:1029E000CE01049661E070E00E94031160E070E0A7
:1029F0008DE195E10E94E70F0E944F1180E197E27F
:102A000089839A8300000E94C310813049F4898130
:102A10009A81019789839A8389819A81892B99F771
:102A200089819A81892B11F482E001C080E025968A
:102A3000CDBFDEBFDF91CF910895CF93DF9300D05C
:102A4000CDB7DEB789839A8383E00F900F90DF9133
:102A5000CF9108951BBEFC0164BF40830895CF93BE
:102A6000DF93CDB7DEB7000080E491E0FC01818107
:102A70008823D1F780E491E021E8FC01208380E401
:102A800091E0FC01178280E491E022E0FC012283C6
:102A900080E0DF91CF910895CF93DF93CDB7DEB77C
:102AA00080E0DF91CF910895CF93DF93CDB7DEB76C
:102AB00080E298E024EC39E0FC012087318780E255
:102AC00098E020ECFC01268380E0DF91CF9108950F
:102AD000CF93DF93CDB7DEB780E298E0FC0184812D
:102AE000882F90E08072992721E0892B09F420E05B
:102AF000822FDF91CF910895CF93DF93CDB7DEB7CB
:102B000080E298E0FC018481882F90E0807499270E
:102B100021E0892B09F020E0822FDF91CF910895E9
:102B2000CF93DF931F92CDB7DEB78983000080E299
:102B300098E0FC018481882F90E080729927892B8E
:102B4000B1F380E298E02981FC01228300000F901C
:102B5000DF91CF910895CF93DF9300D01F92CDB72F
:102B6000DEB789836A837B8389810E94961680E021
:102B700090E02396CDBFDEBFDF91CF910895CF9334
:102B8000DF9300D0CDB7DEB780E498E0FC01808110
:102B90008983809157418F5F87708A8380915841E4
:102BA0009A81981781F08A81809357418A81882F72
:102BB00090E0815B9E4B2981FC01208380915941EB
:102BC0008F5F8093594100000F900F90DF91CF915C
:102BD0000895CF93DF931F92CDB7DEB78091644104
:102BE0008823C1F0809163418F5F877089838981D9
:102BF0008093634180E498E02981222F30E0265AB7
:102C00003E4BF9012081FC01228380916441815077
:102C10008093644180916441882349F480E498E082
:102C200020E438E0F90125812F7DFC012583000097
:102C30000F90DF91CF9108951F920F9200903F0067
:102C40000F92112400903B000F922F933F934F93CC
:102C50005F936F937F938F939F93AF93BF93EF9304
:102C6000FF93CF93DF93CDB7DEB78091D2409091A1
:102C7000D340892B31F08091D2409091D340FC0118
:102C800009950000DF91CF91FF91EF91BF91AF9136
:102C90009F918F917F916F915F914F913F912F9174
:102CA0000F9000923B000F9000923F000F901F90FA
:102CB00018951F920F9200903F000F9211240090E0
:102CC0003B000F922F933F934F935F936F937F93AC
:102CD0008F939F93AF93BF93EF93FF93CF93DF9324
:102CE000CDB7DEB78091D4409091D540892B31F09B
:102CF0008091D4409091D540FC0109950000DF916E
:102D0000CF91FF91EF91BF91AF919F918F917F9163
:102D10006F915F914F913F912F910F9000923B00E7
:102D20000F9000923F000F901F901895CF93DF9364
:102D300000D0CDB7DEB78A83809162418F5F877004
:102D400089830000809164418830E1F38981882F74
:102D500090E0865A9E4B2A81FC01208389818093D2
:102D600062410FB6F8940F92809164418F5F809317
:102D700064410F900FBE80E498E020E438E0F90150
:102D800025812062FC01258300000F900F90DF91C8
:102D9000CF910895CF93DF931F92CDB7DEB780E434
:102DA00098E020E137E2FC012087318780E498E059
:102DB00020E8FC01258380E498E020ECFC012683D8
:102DC00019828981809358418981809357418981F3
:102DD00080935941898180936341898180936241C5
:102DE00089818093644184EC90E48093B84190930E
:102DF000B94180E00F90DF91CF910895CF93DF9399
:102E0000CDB7DEB780E0DF91CF910895CF92DF920A
:102E1000FF920F931F93CF93DF93EC01AE81BF819D
:102E2000EB01CC0FDD1FC60FD71FCA0FDB1FFA80C7
:102E3000FC0144815581E6E0E69F9001E79F300D5B
:102E400011248A01020F131FF80122813381F90135
:102E500021813281F80104811581201B310BE88129
:102E60002E1B3109EC01EA81FB8100811181FA01FD
:102E700040E050E04017510739F146175707F9F085
:102E800012968C911297F8121AC080818558823060
:102E9000E8F0C480D58082819381EC0189819A8198
:102EA000C816D90660F48C199D09CC91D0E0C817DA
:102EB000D90728F48C1B9D0B2817390738F04F5F72
:102EC0005F4F13963696D6CF80E001C081E0DF9148
:102ED000CF911F910F91FF90DF90CF900895209197
:102EE000654130916641820F931F809365419093B5
:102EF000664108950097D9F041155105C1F026E0CB
:102F0000629FB0011124DC011496ED91FC9115979C
:102F1000E60FF71F21E0208314968D919C91159761
:102F2000FC01E60FF71F4283538380E008958BE096
:102F300008952F923F924F925F926F927F928F925D
:102F40009F92AF92BF92CF92DF92EF92FF920F9338
:102F50001F93CF93DF93009709F47DC3EC01A12C5D
:102F6000B12C812C912C212CD12C33E0C32E45E89F
:102F7000642E56E8752E67E0362E72E0472EE8E0A4
:102F80005E2EEA81FB81808191818816990608F086
:102F9000A5C17501EE0CFF1C0C811D810E0D1F1DBE
:102FA000D8018C91843009F4A2C038F4823001F148
:102FB00008F049C0813059F08AC1853809F4C2C08F
:102FC000863809F4F6C0873009F081C137C1D801CD
:102FD0001296ED91FC91139780818E7109F069C171
:102FE0004C928C819D81FC01EE0DFF1D518261C1CF
:102FF000F8012181222329F10280F381E02D25307F
:1030000020F081819281D8010EC0D80114968D9153
:103010009C911597418152818417950769F0481753
:10302000590730F4019714968D939C93159704C01B
:103030000196F801848395832150D80111962C9331
:1030400038C1F80131C1D80114962D913C911597E2
:1030500012968D919C911397DC0111964D915C9184
:1030600012972417350709F432C18E819F814217C8
:103070005307E0F4241B350BDC01AA0DBB1D8C911A
:1030800090E0058002C0959587950A94E2F799270C
:103090002817390708F41BC18481882309F417C154
:1030A000F8013082EA81FB8124811AC0FC01EA0D1B
:1030B000FB1D421B530B808190E04817590708F411
:1030C00006C18281882331F0B401CE010E94061727
:1030D0008111FDC0E4E0D801EC93EA81FB812281FB
:1030E0008C819D81FC01EE0DFF1D2183E2C0D80182
:1030F00014962D913C9115971296ED91FC91139792
:10310000818192818217930708F4D7C0EE81FF81F5
:10311000EA0DFB1D821B930B208130E02817390735
:1031200008F0AFC08281882331F0B401CE010E9443
:1031300006178111CCC0F8018181882309F467C08A
:103140008150B6C0A881B981808513968C93EC819B
:10315000FD81EE0DFF1D44815581A281B381119641
:103160008D919C91129784179507C0F0AE81BF8115
:10317000AA0DBB1D6C91262F30E011967C917F5FCC
:1031800002C0359527957A95E2F7841B950B621B53
:10319000262F30E02817390708F497C07082EA819B
:1031A000FB8122818C819D81FC01EE0DFF1D21831D
:1031B00042C0D80114966D917C9115971296ED91AD
:1031C000FC911397218132812617370758F4119605
:1031D0008C911197811102C0CC9277C08150F80177
:1031E000818373C0EE81FF81EA0DFB1D8081482F32
:1031F00050E091819F5F02C0559547959A95E2F7FF
:10320000261B370B841B90E08217930760F4D801CC
:103210006C92EA81FB8123818C819D81FC01EE0D02
:10322000FF1D218352C0F8018181811102C0C0823B
:103230004CC081508183222423943BC0D801149632
:103240002D913C91159712968D919C911397DC01CD
:1032500011968D919C9112978217930768F5281B00
:10326000390BAE81BF81AA0DBB1D8C9190E005800A
:1032700002C0959587950A94E2F799272817390790
:1032800018F4F801C0821AC0D80111968C911197D8
:1032900081110CC081E08C938C819D81FC01EE0D2D
:1032A000FF1D0280F381E02DC08211C08150F80122
:1032B0008183DD24D3940BC0D801CC928C819D8175
:1032C000FC01EE0DFF1D118202C022242394BFEFEA
:1032D0008B1A9B0AE3E0AE0EB11C53CEE881F98154
:1032E000808187FF23C040E050E020E030E0EA81A9
:1032F000FB81808191812817390798F4EC81FD8149
:10330000E40FF51FA281B3818C9180FD05C09081EF
:10331000977F11F081608C932F5F3F4F4A5F5F4F23
:10332000E6CFE881F98180818F778083D11007C053
:10333000E881F98121106FC080818E7F6EC0EA81A3
:10334000FB8181858823A1F3E881F98180818068F0
:103350008083EA81FB818185813051F740E050E034
:1033600020E030E096E0D92EEA81FB816081718116
:1033700026173707E8F60C811D81FA01EE0FFF1FB3
:10338000E00FF11F8081982F977FA1F1853811F010
:103390008330B1F5EE80FF80D701A40FB51F1296E0
:1033A000BC90BB2039F180E090E0C12C86179707D4
:1033B000F8F428173907D1F0D89ED001D99EB00D66
:1033C0001124A00FB11FAC91A43011F0A63871F4F4
:1033D000DC01AA0FBB1FA80FB91FAE0DBF1D1296AF
:1033E000AC91BA1203C0CB01CC24C3940196DECFBA
:1033F000C11006C00280F381E02D80818E7F05C060
:103400000280F381E02D8081816080832F5F3F4FB8
:103410004D5F5F4FA9CF808181608083809165413E
:1034200090916641E881F98121813281A901485357
:103430005F4F4817590738F4821B930BAA24A394B3
:10344000A3E0BA2E44C08217930710F080E004C1B5
:10345000821B930B0197893C9105C0F3EFCF885CE9
:103460009109E881F9812181328128533F4F2183DD
:1034700032832381211196C02481222311F021500F
:103480002483E881F9812581222311F021502583AD
:103490008A809B80D40116962C91169721111BC00F
:1034A0008A809B80F4012781211148C0EA81FB8139
:1034B0002381222361F020E030E0A0E0B0E0EA8147
:1034C000FB8140815181A417B50708F46EC0893C87
:1034D000910528F6BBCF08811981F80124812111BB
:1034E000DFCFED90FC9060E070E040E050E04E15E2
:1034F0005F05F1F0EC81FD81E60FF71F208123309D
:1035000011F0283081F424813581C280D380D60126
:103510001196CD90DC9012972C153D0520F42F5F6D
:103520003F4F248335834F5F5F4F6A5F7F4FDFCF0D
:10353000F4012681D80114962C93B2CF0881198109
:10354000D80115962C912111B1CFE080F18060E077
:1035500070E040E050E04E155F05F1F0EC81FD8138
:10356000E60FF71F2081233011F0283081F42481E9
:103570003581C280D380D6011196CD90DC90129710
:10358000C216D30620F421503109248335834F5FBE
:103590005F4F6A5F7F4FDFCFF4012781D801159617
:1035A0002C9384CF2150238381CFA901440F551F31
:1035B000EC81FD81E40FF51F6081653809F047C09B
:1035C0006181662319F06150618341C0A0826C81E2
:1035D0007D81FB01E40FF51F0280F381E02DB082B5
:1035E000EE81FF81E20FF31FD280DD2081F140E008
:1035F00050E000E010E0EA81FB81608171810617F4
:10360000170728F5EE81FF81E40FF51F6281D612BE
:1036100019C0BA01660F771FEC81FD814F01860E3C
:10362000971EF401E280F380F701F080F0FE0AC0FB
:10363000F401A082EC81FD81E60FF71F0280F38187
:10364000E02DB0820F5F1F4F4D5F5F4FD4CF1196BB
:103650002D5F3F4F34CF8BE0DF91CF911F910F91C2
:10366000FF90EF90DF90CF90BF90AF909F908F90A2
:103670007F906F905F904F903F902F9008959C01A6
:103680006115710509F14F5F37FD06C0442321F034
:103690004150220F331FF8CF77FD04C04F5F660FF4
:1036A000771FFACF80E090E0442381F097FD0CC0B3
:1036B000880F991F41502617370718F0261B370B24
:1036C000019676956795F0CF8FEF9FEF0895CF9392
:1036D000DF93FC01892BB9F1248135812115310556
:1036E00091F1468157814115510569F1A081B18160
:1036F0001C9290E0A281B38112968C91981708F5E4
:10370000D90189E0989FA00DB11D112411961C923A
:103710001197EA0188E0989FC00DD11D11248D8179
:1037200012968C93129713961D921C9214971596CD
:103730001D921C92169717961D921C9218979F5FC8
:10374000D9CF80E001C08BE0DF91CF9108952F9217
:103750003F924F925F926F927F928F929F92AF9221
:10376000BF92CF92DF92EF92FF920F931F93CF936E
:10377000DF93CDB7DEB76197CDBFDEBFFC01009709
:1037800009F4DCC2E480F580EA86FB86EF2809F4C0
:10379000D5C2E680F780E886F986EF2809F4CEC224
:1037A000A281B3814D905C904114510409F4C6C2CA
:1037B0008E839F8300E01A82912C16E0812EAE81C9
:1037C000BF811296ED91FC9113978281981608F0B3
:1037D000B0C26884798428E0929E600C711C112428
:1037E000D30111964D915C9112971396AC907A018A
:1037F000EA0CF11CCA0160E08E159F0570F4889EEA
:10380000F001899EF00D1124E40DF51D208125386D
:1038100011F4C70161E00196EFCF849EF001859E0F
:10382000F00D1124EC83FD833497E40DF51D26E0A3
:10383000A29E500111241A0170E0188A198A2E14D0
:103840003F0408F04FC086819781DC0111962D91CD
:103850003C91129780859185281B390B121613060F
:1038600014F020E030E024163506A9F4D3018C9141
:103870008130F9F46F01CA0CDB1CD6018D919C914B
:10388000DC0111968D919C911297D6011296CD90E4
:10389000DC90139709C080819181DC0111968D9194
:1038A0009C911297C280D3808C199D091816190615
:1038B00014F080E090E0280F391FD30116968D9107
:1038C0009C9117972817390740F0888999898217A2
:1038D000930710F4288B398B71E09FEF291A390A6E
:1038E0003696ADCF711101C060E0A9E09A9E9001BB
:1038F0001124EA84FB84E20EF31EEE86FF86D701D4
:103900008C91AE81BF811496ED91FC911597B82FE3
:10391000B170BD8780FF1EC07F01E20EF31ED7018C
:103920001796CD90DC901897C601880F991F8C0DC3
:103930009D1DA889B9898A0F9B1F96958795969595
:103940008795D70117968D939C931897772361F0ED
:1039500061E00AC0CF01820F931FE888F988DC017B
:103960001796ED92FC921897D301BC91B983B230AF
:1039700008F0D4C1D30114961C91103D08F0CEC1BB
:10398000611105C0E20FF31F17821086C8C1F30151
:10399000F381FB83E12EE2949FE0E922EC86AC8088
:1039A000BD80A40CB51CF501BA01212C312C20E0FE
:1039B00030E08B81E82EF12C6A01CE0CDF1C6C15F7
:1039C0007D05B0F4A281B38111968D919C911297DF
:1039D000A481B5818A1B9B0B181619062CF4281696
:1039E000390614F41C019B016F5F7F4F3696E7CFB9
:1039F0004217530779F59981913009F0A1C18C9C48
:103A0000F0018D9CF00D11243697E40DF51DA28177
:103A1000B38111966D917C91129784819581681B79
:103A2000790BEC81FD813696E40DF51DA281B38101
:103A300011968D919C9112970480F581E02D8E1B3B
:103A40009F0B97FF02C080E090E0861797070CF469
:103A50007BC112C0829EF001839EF00D1124369727
:103A6000E40DF51DA281B38111966D917C911297A1
:103A700084819581681B790B90E077FF02C060E03C
:103A800070E0A1E0CA1AD1082C153D0581F4B98176
:103A9000B13029F5D5011296ED91FC911397C180B3
:103AA000D28014960D90BC91A02DF60114C0F9019E
:103AB00031968E9ED0018F9EB00D1124A40DB51DA0
:103AC0001296ED91FC9113970180F281E02D1496EE
:103AD0000D90BC91A02DEA1BFB0BF7FF02C0E0E0AC
:103AE000F0E0BB81B03128F0B4E0AB2E88E0B82E16
:103AF00003C0A12CACE0BA2E913011F4670103C0D1
:103B0000241B350B69010B2C02C0CC0CDD1C0A9464
:103B1000E2F76E177F07A8F0C1018E1B9F0B9C0177
:103B20002E1B3F0B620F731F4B2D0E943F1B21E08A
:103B300030E002C0220F331FBA94E2F7821B930BCE
:103B40000CC0CF01861B970BF101E61BF70BBF01E1
:103B5000680F791F4B2D0E943F1B8C0D9D1DFB8113
:103B6000F33060F02981213019F44A2DB70104C0E7
:103B7000B701615071094A2D0E943F1B813030E12D
:103B8000930710F080E090E1E980E11017C01F700A
:103B9000A9F028E2129FA00111248417950718F0BC
:103BA000841B950B02C080E090E0440F551F60E03D
:103BB00070E1641B750B4CE00E943F1B2CE030E071
:103BC000EC842E19310961E070E002C0660F771FA6
:103BD000EA94E2F7FB01319702C0969587952A9502
:103BE000E2F7E817F90708F4CF01FD84FF20D9F1C7
:103BF000AE85BF8513964D915C9114979C01241B53
:103C0000350BB981B130A9F4DB01B695A79537FF23
:103C10000AC0B195A195B1092A173B070CF096C0CF
:103C2000260F371F06C0A217B3070CF095C0261B3E
:103C3000370B21303105C1F02F3F6FEF3607A1F070
:103C400037FF09C031952195310936952795319572
:103C50002195310902C036952795240F351FAF01F4
:103C60004223532301C0AC01AE85BF8513968D93CB
:103C70009C931497F301A581EE85FF85658176817C
:103C8000F3012481CA01861B970B30813130E1F4A6
:103C900022952F70E1E0F0E002C0EE0FFF1F2A95A1
:103CA000E2F79F013695279597FF09C03195219539
:103CB00031098217930754F48E0F9F1F05C02817F0
:103CC0003907ACF48E1B9F0B97FF11C0919581951E
:103CD0009109EE85FF85228130E02817390714F01D
:103CE00080E01AC0EE85FF85A18312820BC0EE85AD
:103CF000FF85218130E02817390794F7EE85FF858D
:103D00001182A2834617570759F3AE85BF851596D2
:103D10004D935C93169782E0816802C002E080E0D8
:103D2000EE85FF8580838178EA80E82AEA82939491
:103D300046CDED91FC91EA80E08213C00BE011C00A
:103D400060E070E090E09DCE91E09BCE2F3F6FEF62
:103D5000360709F077CF88CF2130310509F070CFD1
:103D600083CF802F6196CDBFDEBFDF91CF911F91B2
:103D70000F91FF90EF90DF90CF90BF90AF909F900A
:103D80008F907F906F905F904F903F902F9008950D
:103D9000A091B241B091B34125E0AC01249FC00194
:103DA000259F900D11241496ED91FC911597E80F25
:103DB000F91F818192818617970781F186179707EE
:103DC00018F4681B790B04C09C01261B370BB90142
:103DD000ED91FC918281803411F476956795653878
:103DE0007105D0F466307105C8F0E381E073F0E04E
:103DF00083E0F695E7958A95E1F7E952FF4B8081DC
:103E00009181689F9001699F300D789F300D11243A
:103E100081E0232B21F402C081E0089580E0089521
:103E200080916C4190916D41A091B241B091B341AC
:103E3000ED91FC9111974081518125E0289FB001BF
:103E4000299F700D112420E030E084179507A8F415
:103E50001496ED91FC911597E20FF31FE60FF71FF3
:103E6000E0812B5F3F4FE0FD02C00196EECF8093D3
:103E70006C4190936D4180E0089510926C411092D6
:103E80006D4181E00895AF92BF92CF92DF92EF92A1
:103E9000FF920F931F93CF93DF937C01E091B24188
:103EA000F091B34184E18E9DE0018F9DD00D1124EE
:103EB000A281B381AC0FBD1F18962C91189719964B
:103EC0003C9119971A964C911A971B965C911B97E7
:103ED0001C966C911C971D967C911D971E968C913B
:103EE0001E971F969C912093F00708E00E942526BC
:103EF0002093F1070E9425262093F2070E94252691
:103F00002093F3070E9425262093F4070E9425267C
:103F10002093F5071092E007A081B18112968C9151
:103F2000803809F44FC0A281B381AC0FBD1FCC9083
:103F300011963C91119712964C91129713965C91A1
:103F4000139714966C91149715967C911597169665
:103F50008C91169717969C91C092E8072C2D0E9481
:103F60002526D22E2093E9070E942526122F209382
:103F7000EA070E942526A22E2093EB070E94252601
:103F8000B22E2093EC070E9425262093ED07808116
:103F90009181DC0112968C91813821F481E080932B
:103FA000E00710C0823871F41092E007C092F80761
:103FB000D092F9071093FA07A092FB07B092FC0782
:103FC0002093FD0725E02E9DC0012F9D900D11240B
:103FD000A481B581A80FB91F13962D913C91149718
:103FE000A90153704093E4075093E50737FD03C0E0
:103FF0001092CA0703C021E02093CA07A481B581AB
:10400000A80FB91F2C9121FF02C025E02C93248119
:104010003581D901A80FB91F8C918C7169F4A281E7
:10402000B381AC0FBD1F5296AC91A295AF70B0E0BA
:10403000A152BF4B8C9101C08FE18093E607A28112
:10404000B381AC0FBD1F50968C918B3710F48C5FF1
:1040500001C08FE78093C407A281B381AC0FBD1F5D
:1040600053968C918093C707A281B381AC0FBD1F7B
:1040700051968C9182958F708093C907828193812C
:10408000C80FD91F89898F7080688093C20781E823
:104090008093C00781E08093D007DF91CF911F917B
:1040A0000F91FF90EF90DF90CF90BF90AF90089569
:1040B0002F923F924F925F926F927F928F929F9238
:1040C000AF92BF92CF92DF92EF92FF920F931F9326
:1040D000CF93DF93CDB7DEB72797CDBFDEBF8091FB
:1040E0006B41882309F446C20091B2411091B3415B
:1040F0002091B4413091B5412A833B83C12CD12C0E
:10410000A12CB12C212C312C198244244A94552401
:10411000539477247394D8010D90BC91A02DAE8355
:10412000BF838D919C912816390608F01FC2AA8181
:10413000BB814D915D91AA83BB83F801E480F5803A
:10414000EA0CFB1CD7012C91822F8C7190E0969584
:104150008795969587958230910509F4A0C128F43A
:10416000009759F0019701F1F7C18330910509F4E7
:1041700059C1049709F4E1C0EFC10280F381E02D39
:10418000EC0DFD1D92899F708389981710F4891B8F
:1041900001C080E09A0102C0369527958A95E2F722
:1041A000F70121833283D8C182819381FC01EC0D18
:1041B000FD1D4A01038802C0969487940A94E2F791
:1041C000D70111968D929C92129713968D919C9186
:1041D0001497692F661F6627661F8114B2E09B063D
:1041E00030F03FEF831A31E0930A41E005C0A201AD
:1041F000481959094A0140E096948794AE81BF81DD
:1042000012963C91303429F0442309F4B6C1462F6C
:1042100006C097FF04C031E0411130E0432FBAE0FF
:104220008B16910408F03FC026FD3AC027FD94C1CB
:10423000AE81BF8113968C918370833059F4BFE7B0
:10424000B08BD8011496ED91FC911597EA0DFB1DEA
:10425000B1E10DC0823069F48189807F818BD80102
:104260001496ED91FC911597EA0DFB1DB9E0B08312
:1042700073C18130A9F481898F70818BD801129626
:10428000ED91FC911397EC0DFD1D81898067818B69
:104290001496ED91FC911597EA0DFB1DBDE0E7CF5B
:1042A000F701708259C19C0133702F3FF3E03F0743
:1042B00031F4E1E8D701EC938FEF93E00BC02115C7
:1042C000310559F497FF25C0E1E8D701EC9380E070
:1042D00090E061E0FEE0F9831FC0C90141110FC009
:1042E000019621E0821A910831E083169104A1F031
:1042F0008F3F43E09407A1F70FC0009769F0019743
:10430000AC01421B530B480D591D41305105A9F713
:1043100003C080EF90E061E0D8011496ED91FC912C
:104320001597EA0DFB1D70E0772766957795662750
:10433000862B972B838394830FC1F801828093800F
:104340008C0C9D1CFA01D40153960C90539702C01B
:10435000F695E7950A94E2F7EC83FD8350966C900E
:10436000FFE76F120FC0EC81FD81D7011196ED932D
:10437000FC931297D40150968C9150978F7B509656
:104380008C9342C0F12C262D30E0C9010F2C02C0C5
:10439000969587950A94E2F780FF03C08F2DF12C44
:1043A00001C087E08F5F873010F4F82EEECF6C816C
:1043B0007D81C1010E94C81E882351F081E090E0F8
:1043C0000F2C01C0880F0A94EAF78629F401808B2C
:1043D000D801FF2091F01296ED91FC911397EC0D0E
:1043E000FD1DFA9481E090E001C0880FFA94EAF78D
:1043F000809590898923808B07C01496ED91FC915C
:104400001597EA0DFB1D7082D8011496ED91FC9171
:104410001597EA0DFB1D8081813009F09DC02C812C
:104420003D8183C00280F381E02DEC0DFD1D9A01DA
:10443000038802C0369527950A94E2F72C833D83C2
:10444000918892942FE0922237E0931691F06C813C
:104450007D81C1010E94C81E811104C09394D701BF
:104460007C9209C0911003C0F701708204C09A9435
:1044700002C096E0992ED8011296ED91FC91139707
:10448000EC0DFD1D81898F70818B1296ED91FC9151
:104490001397EC0DFD1D929480EF982236C0028098
:1044A000F381E02DEC0DFD1D9A01038802C03695C5
:1044B00027950A94E2F72C833D8381898F70982E8B
:1044C00091F0B901C1010E94C81E811104C09A94E3
:1044D000D7017C920AC0B7E09B1203C0F70170823B
:1044E00004C0939402C099249394D8011296ED913C
:1044F000FC911397EC0DFD1D8189807F818B1296B5
:10450000ED91FC911397EC0DFD1D8189982A918AFC
:104510001496ED91FC911597EA0DFB1D2C813D81C0
:104520002183328380818130B9F4211542E0340740
:1045300028F02F5F31402C833D8307C0C201AC813E
:10454000BD818A1B9B0B8C839D832C813D812B30ED
:10455000310510F035E430834FEF241A340A55E06A
:10456000A50EB11C84E1C80ED11CD5CD82E080938C
:104570006B4109C0B3E0B98306C0492F4095441F81
:104580004427441F4CCE89812796CDBFDEBFDF91E3
:10459000CF911F910F91FF90EF90DF90CF90BF9040
:1045A000AF909F908F907F906F905F904F903F90D3
:1045B0002F9008955F926F927F928F929F92AF9209
:1045C000BF92CF92DF92EF92FF920F931F93CF9300
:1045D000DF93009709F492C0DC01ED91FC916081BA
:1045E000718140E050E020E030E0B0E010E0F12CDC
:1045F000E12C912C812C712C612C2617370751F15D
:10460000EC01EA81FB81E40FF51FA080A085AA2AB6
:10461000B180A185BA2AC280A285CA2AD380A38587
:10462000DA2AD481A485DA2BC581A585CA2B5680C8
:10463000A685A5295780E785E529BA291B29FC28E5
:10464000ED289D2A8C2A7A2A6E2A2F5F3F4F4C5ED6
:104650005F4FD3CF2B2F312F4F2D5E2D692D782D0E
:10466000872D962DA0E00E94412609F449C081E0E3
:1046700080936B4122EFC22E20E4D22EC0E0D0E026
:10468000AA24A394B12C4CE0542E2B2F312F4F2D64
:104690005E2D692D782D872D962D0C2F0E942526B5
:1046A000217030E040E050E060E070E080E090E0B9
:1046B000A0E00E944126C9F0F6018081E82FE29532
:1046C000E695E770F0E0EE0FFF1FEC51FF4B019015
:1046D000F081E02D8F71950102C0220F331F8A9562
:1046E000E2F7228326835386258721963FEFC31A5C
:1046F000D30AC033D10549F680E003C08BE001C086
:1047000082E0DF91CF911F910F91FF90EF90DF90AA
:10471000CF90BF90AF909F908F907F906F905F9061
:104720000895009731F08093B4419093B54180E0B3
:1047300008958BE008956115710561F1009751F1BD
:1047400020916B41222341F1243041F18093B24109
:104750009093B3416093694170936A41DC01ED919C
:10476000FC912281203419F41092C10707C020382F
:1047700011F0213831F421E02093C1071092CB07CA
:1047800011C0223869F421E02093C10729E0209369
:10479000CB0708C08BE0089583E0089581E0089579
:1047A00082E008951092C007DC01ED91FC918481B4
:1047B0009281903451F41092C507803110F48062D8
:1047C00001C08FE28093C30708C090E29093C307B3
:1047D0008F3008F08FE08093C50781E08093D30786
:1047E0008093D2078093D64010926C4110926D4115
:1047F0000E94101F81110BC084E080936B41809157
:104800006C4190916D410E94431F80E0089582E0C9
:1048100080936B4108950097C9F0DC01ED91FC9104
:104820001197208131812617370790F045E0469F88
:104830009001479F300D11241496ED91FC9115972E
:10484000E20FF31F81E0808380E008958BE00895FC
:1048500082E00895FC01892BD1F1A081B1818D9175
:104860009C91119786179707A0F112969C9104804E
:10487000F581E02D903459F485E0869FD001879F23
:10488000B00D1124AE0FBF1F80EA90E00DC090580C
:10489000933080F485E0869FD001879FB00D11246E
:1048A000AE0FBF1F80EF90E013968D939C931497EB
:1048B00080E001C082E095E0969F9001979F300DC7
:1048C0001124E20FF31F90819260908308958BE092
:1048D000089582E008952091DA073091DB07609116
:1048E0006C4170916D41CB01880F991FE091B441EB
:1048F000F091B541E80FF91F20833183A091B241B7
:10490000B091B34144E1469FC001479F900D1124EF
:104910001296ED91FC911397E80FF91F92899F7001
:104920008389981710F4891B01C080E095E0969F59
:10493000A001979F500D11241496ED91FC911597AD
:10494000E40FF51F02C0369527958A95E2F721837B
:10495000328382E080936B41E0916741F09168413E
:1049600009941092C0078091D640813009F04EC062
:104970004091DA075091DB0780916C4190916D4135
:104980009C01220F331FE091B441F091B541E20F39
:10499000F31F40835183019680936C4190936D4146
:1049A0000E94101F811109C084E080936B418091A7
:1049B0006C4190916D410C94431F1092E807109246
:1049C000E9071092EA071092EB071092EC07109299
:1049D000ED071092F0071092F1071092F207109273
:1049E000F3071092F4071092F5071092F80710924F
:1049F000F9071092FA071092FB071092FC07109229
:104A0000FD07E0916941F0916A4109940C946B248F
:104A10000E943C2508F481E008950E94902588F0CA
:104A20009F5798F0B92F9927B751B0F0E1F0660F72
:104A3000771F881F991F1AF0BA95C9F714C0B130B3
:104A400091F00E94AA25B1E008950C94AA25672F41
:104A5000782F8827B85F39F0B93FCCF386957795E2
:104A60006795B395D9F73EF49095809570956195CB
:104A70007F4F8F4F9F4F0895990F0008550FAA0B36
:104A8000E0E8FEEF16161706E807F907C0F0121661
:104A90001306E407F50798F0621B730B840B950B64
:104AA00039F40A2661F0232B242B252B21F40895B9
:104AB0000A2609F4A140A6958FEF811D811D089556
:104AC00097F99F6780E870E060E008959FEF80ECC1
:104AD000089500240A941616170618060906089564
:104AE00000240A9412161306140605060895092ECA
:104AF0000394000C11F4882352F0BB0F40F4BF2B39
:104B000011F460FF04C06F5F7F4F8F4F9F4F089578
:104B100057FD9058440F551F59F05F3F71F047956E
:104B2000880F97FB991F61F09F3F79F08795089553
:104B3000121613061406551FF2CF4695F1DF08C072
:104B4000161617061806991FF1CF8695710561058F
:104B500008940895E894BB2766277727CB0197F937
:104B600008950E943C2508F48FEF08950E94C925FE
:104B70000C9477250E94692538F00E94702520F05A
:104B8000952311F00C9460250C94662511240C9447
:104B9000AB250E94882570F3959FC1F3950F50E0D7
:104BA000551F629FF001729FBB27F00DB11D639FDF
:104BB000AA27F00DB11DAA1F649F6627B00DA11D85
:104BC000661F829F2227B00DA11D621F739FB00D2B
:104BD000A11D621F839FA00D611D221F749F33279B
:104BE000A00D611D231F849F600D211D822F762F34
:104BF0006A2F11249F5750409AF0F1F088234AF011
:104C0000EE0FFF1FBB1F661F771F881F915050407C
:104C1000A9F79E3F510580F00C9460250C94AB25BC
:104C20005F3FE4F3983ED4F3869577956795B79503
:104C3000F795E7959F5FC1F7FE2B880F911D96951D
:104C4000879597F9089597FB10F8169400080F932D
:104C5000083098F00850232F342F452F562F672FF8
:104C6000782F892F902DF4CF059497958795779578
:104C7000679557954795379527950A95AAF70F9108
:104C800008950024A7FD00942A173005400550051B
:0E4C900060057005800590050895F894FFCF2B
:104C9E00085FB400864A03EB00000000000000AA83
:104CAE0055016EA00400403000020000000000001C
:104CBE0000010000000000000000051004080000C4
:104CCE0000000000000100000000000000000510C0
:104CDE0004200000000000000001000000000000A1
:104CEE00000005100480000000000000000100001C
:104CFE000000000000000510041440194075410426
:104D0E00000400050014051401140101140101141E
:104D1E0001011401016E416F409A4179409A41019F
:104D2E00000000048A0814002A418D4089419040F9
:104D3E007A11DF11F7115912AD122B13891192113D
:104D4E009B11A4110B121C122D1248125911B611DF
:104D5E007B13A8130000000200000000AB1500003A
:104D6E000000BF15E9150107001300350090001F64
:104D7E000F07030100042004400460048004A00413
:104D8E00C004000102030405060720212223242566
:104D9E00262760616263646566678081828384858D
:104DAE008687A0A1A2A3A4A5A6A7C0C1C2C3C4C53D
:024DBE00C6C766
:00000001FF
